:020000040800F2
:1000000040E4012031030008BB68000801530008E8
:10001000B5680008F315000819E8000800000000A2
:10002000000000000000000000000000790200084D
:100030004503000800000000CD020008B9C2000816
:100040004B0300084B0300084B0300084B03000858
:100050004B0300084B030008D1380008E9380008BA
:100060004B0300084B0300084B0300084B03000838
:100070004B0300084B030008A32F00084B030008A4
:100080004B030008AD2F00084B0300084B0300088A
:100090004B0300084B0300084B030008013900081C
:1000A0004B0300084B0300084B0300084B030008F8
:1000B0004B0300084B0300084B0300084B030008E8
:1000C0004B0300084B0300084B0300084B030008D8
:1000D0004B030008C1CC0008ADCD0008B1CF00082B
:1000E0004B0300084B0300084B0300084B030008B8
:1000F0004B0300084B0300084B030008D92F0008EE
:100100004B0300084B0300084B0300084B03000897
:10011000A9C90008BDCB00084B0300084B03000829
:100120004B0300084B0300084B0300084B03000877
:100130004B0300084B0300084B0300084B03000867
:100140004B0300084B0300084B0300084B03000857
:100150004B0300084B0300084B03000811D00008B4
:100160004B0300084B0300084B0300084B03000837
:100170004B0300084B0300084B0300084B03000827
:100180004B0300084B03000800F002F800F064F88D
:100190000AA090E8000C82448344AAF10107DA45E2
:1001A00001D100F059F8AFF2090EBAE80F0013F0D0
:1001B000010F18BFFB1A43F001031847F07001004C
:1001C000107101000A444FF0000C10F8013B13F0CD
:1001D000070408BF10F8014B1D1108BF10F8015BA0
:1001E000641E05D010F8016B641E01F8016BF9D193
:1001F00013F0080F1EBF10F8014BAD1C0C1B09D1EA
:100200006D1E58BF01F801CBFAD505E014F8016B5B
:1002100001F8016B6D1EF9D59142D6D370470000ED
:100220000023002400250026103A28BF78C1FBD8FF
:10023000520728BF30C148BF0B607047642900F0E7
:100240007981732900F0C482002070471FB516F031
:1002500016F81FBD10B510BD00F026FB1146FFF7C4
:10026000F5FF11F00DFF00F044FB03B4FFF7F2FFC0
:1002700003BC11F0BFF800002A4B19680868B0E809
:10028000F04F80F30988BFF36F8F4FF0000080F3C9
:10029000118870470000000006480068006880F37D
:1002A000088862B661B6BFF34F8FBFF36F8F00DF70
:1002B00000BF00BF08ED00E0DFF80C00016841F46A
:1002C00070010160704700BF88ED00E0EFF3098026
:1002D000BFF36F8F134B1A681EF0100F08BF20ED8D
:1002E000108A20E9F04F106008B44FF0500080F3FE
:1002F0001188BFF34F8FBFF36F8F14F0F5F94FF0F4
:10030000000080F3118808BC19680868B0E8F04F55
:100310001EF0100F08BFB0EC108A80F30988BFF3FD
:100320006F8F704778090020EFF305807047000059
:100330000948804709480047FEE7FEE7FEE7FEE779
:10034000FEE7FEE7FEE7FEE7FEE7FEE704480549B5
:10035000054A064B70470000F1C3000889010008F8
:1003600040DE012040E4012040E0012040E0012087
:10037000704753EA020C00F069802DE9F04B4FF012
:100380000006002B1FBFB3FA83F503FA05F424FA25
:1003900005F65E4012BF1643B2FA82F502FA05F482
:1003A000C5F120051EBF22FA05FC44EA0C042035E5
:1003B00056EA044C4FEA144418BF641C4FF000087E
:1003C0004FF00009904271EB030C39D3002919BF9B
:1003D000B1FA81F701FA07F6B0FA80F700FA07F6EA
:1003E000C7F120071EBF20FA07FC46EA0C0620379B
:1003F000B6FBF4FCA7EB0507103F07F01F0BCBF192
:1004000020060CFA0BFB2CFA06F644BFB346002676
:10041000202FA4BF5E464FF0000B5BEA060C08BF1E
:100420004FF0010B19EB0B09ABFB027C48EB060804
:10043000C01B06FB02CC0BFB03CC71EB0C01C1E72C
:100440000B46024641464846BDE8F08B13B54FF0D7
:1004500000004FF00001AFF30080BDE81C40704782
:100460000FB4044910B503AA029800F0B5F910BC06
:100470005DF814FB280000202DE9F0410E460446EB
:10048000002020622046E168884730B3252805D047
:10049000D4E901219047206A401CF2E7E168204638
:1004A00000278847050018D0A5F14100192802D877
:1004B00020354FF400673246294620462760FFF773
:1004C000BDFE40B1012804D0F61D26F0070608360F
:1004D000D8E7361DD6E72846DAE7206ABDE8F0817E
:1004E00070B50C460546012A05D02878800600D54F
:1004F000EA69002302E0012305E05B1C934202D27B
:10050000E05C0028F9D1A869E618C01AA861286A39
:10051000184428622846AFF3008004E0D5E90121A1
:1005200014F8010B9047B442F8D32846AFF300808B
:1005300070BD00002DE9F0410646002410687529C1
:10054000314616A510D0AFF30080002802DA4042F1
:1005500013A507E031688A0701D512A502E0490713
:1005600004D511A5012401E0AFF3008000210A2287
:1005700006F1240709E0B0FBF2FCB0FBF2F302FB4A
:100580001C00303078541846491C0028F3D123460B
:100590002A463046BDE8F04100F096B80000000061
:1005A0002D0000002B00000020000000032A40F274
:1005B000308010F0030C00F0158011F8013BBCF105
:1005C000020F624498BF11F801CB00F8013B38BF1D
:1005D00011F8013BA2F1040298BF00F801CB38BF2B
:1005E00000F8013B11F0030300F02580083AC0F049
:1005F000088051F8043B083A51F804CBA0E80810F1
:10060000F5E7121D5CBF51F8043B40F8043BAFF323
:100610000080D20724BF11F8013B11F801CB48BF7D
:1006200011F8012B24BF00F8013B00F801CB48BFB3
:1006300000F8012B704710B5203AC0F00B80B1E8EC
:100640001850203AA0E81850B1E81850A0E8185007
:10065000BFF4F5AF5FEA027C24BFB1E81850A0E810
:10066000185044BF18C918C0BDE810405FEA827C2A
:1006700024BF51F8043B40F8043B08BF7047D20741
:1006800028BF31F8023B48BF11F8012B28BF20F8E2
:10069000023B48BF00F8012B704702F0FF0343EA1A
:1006A000032242EA024200F0ABB87047704770473D
:1006B000704710B500F0C4F8006810BD10B50446CE
:1006C00000F0BEF8046010BD2DE9F0470D469946D4
:1006D0009246044600F124080168880604D5E069C2
:1006E00021F01001216000E00120A84201DD471B3C
:1006F00000E00027A1697A1902EB0900081AA0613D
:100700002078C00602D42046AFF30080002608E01F
:10071000D4E901211AF806009047206A401C761C93
:1007200020624E45F4DB2078C0060AD52046AFF3A0
:10073000008006E0D4E9012130209047206A401C67
:100740002062381EA7F10107F4DC07E0D4E901219B
:1007500018F805009047206A401C2062281EA5F169
:100760000105F3DC2046AFF300802078000602D5B7
:100770000220BDE8F0870120FBE7000001694A1C68
:1007800002610878704700B58FB0CDE901310021D2
:10079000059105497944CDE9031011466846FFF7F4
:1007A0006BFE0FB000BD0000E5FFFFFF10B5436911
:1007B00013B1AFF3008001E0FFF792FE012010BDFE
:1007C000127800F124010A7000224A700122EDE73C
:1007D00011684FF0FF32E9E7074B70B50D467B44D7
:1007E000FFF7D1FF0446284600F02EF810B14FF075
:1007F000FF3070BD204670BD5F1301004FF0000256
:100800000429C0F0128010F0030C00F02380CCF11A
:10081000040CBCF1020F18BF00F8012BA8BF20F890
:10082000022BA1EB0C0100F015B85FEAC17C24BFDC
:1008300000F8012B00F8012B48BF00F8012B70478E
:1008400000487047E0DD0120007B00F08000704729
:100850004FF0000200B5134694469646203922BF59
:10086000A0E80C50A0E80C50B1F12001BFF4F7AFA4
:10087000090728BFA0E80C5048BF0CC05DF804EB86
:10088000890028BF40F8042B08BF704748BF20F8F4
:10089000022B11F0804F18BF00F8012B70470000A9
:1008A00000487047E0DD01207546FFF7F9FFAE46CE
:1008B00005006946534620F00700854618B020B56C
:1008C000FFF744FDBDE820404FF000064FF0000761
:1008D0004FF000084FF0000B21F00701AC46ACE8E8
:1008E000C009ACE8C009ACE8C009ACE8C0098D4655
:1008F000704710B50446AFF300802046BDE81040B5
:10090000FFF7B3BC00B58DB00121084607F0EEF942
:100910000121080207F01AFA10200B9003208DF82D
:10092000300000208DF833000BA9154803F0ECFFD0
:1009300007A800F04FF8002007904FF4803008908F
:10094000002009900A9007A800F02CF801A800F0F8
:10095000FEF8002001908DF808008DF80900049041
:1009600001A9084800F04AF807230122042105489C
:1009700000F08CF80121034800F009F80DB000BD2B
:100980000000024000200140CA430260704721B1CC
:10099000826842F00102826003E0826822F0010274
:1009A000826070470021084A1168084A1140D0E966
:1009B00000231A4383681A43C3681A431143044A45
:1009C000C2F804137047000004230140E030FCFF2C
:1009D000002001400021016041608160C1607047DA
:1009E0000146C86C80B270470246002013680B4075
:1009F0000BB1012000E000207047000030B5024636
:100A0000002000235068104C20400D790C6844EA07
:100A100005242043506090680C4C2040D1E90354D9
:100A20002C438D682C434D7944EA45042043906063
:100A3000D06A20F470000C7D641EE4B2234340EAC7
:100A40000350D06230BD0000FFFEFFFCFDF7FFC089
:100A500070B50C4800F076F80B4C03E0601E041EE5
:100A600000D170BD02210748FFF7BEFF0028F5D076
:100A70000448FFF7B5FF054602210248FFF784FF4F
:100A80002846EEE700200140A0860100F0B50446AC
:100A90000D4600200021092D11DDE068A5F10A06B0
:100AA00006EB4607072606FA07F18843A5F10A0672
:100AB00006EB460603FA06F10843E0600CE0206905
:100AC00005EB4507072606FA07F1884305EB4506BF
:100AD00003FA06F108432061072A0FDA606B561EFD
:100AE00006EB86071F2606FA07F18843561E06EB1B
:100AF000860605FA06F10843606322E00D2A0FDA44
:100B0000206BD61F06EB86071F2606FA07F18843DF
:100B1000D61F06EB860605FA06F10843206310E0AF
:100B2000E06AA2F10D0606EB86071F2606FA07F11A
:100B30008843A2F10D0606EB860605FA06F1084386
:100B4000E062F0BD816841F0804181607047002122
:100B50000160017141718160C16001610121017514
:100B60007047000030B500220024C5788B1F9D42DD
:100B700000D030BD002306E0C55C1544EAB2A518DC
:100B8000ECB25D1CEBB28D1E9D42F5DC431813F8F0
:100B9000023C934204D1431813F8013CA34200D015
:100BA000E7E78378512B38D103795BB943794B4D13
:100BB0006B7183795BB2AB71C3795BB2EB71037A12
:100BC0002B7189E00379012B12D14379434D2B72AC
:100BD000C3886B810389AB81837A2B719FED400AB7
:100BE000404B83ED010A2B461B785B1C2B7073E096
:100BF0000379022B70D14379384DAB73C3882B82B4
:100C000003896B824389AB828389EB82C3892B83FF
:100C1000038A6B83837C2B715EE08378342B0DD148
:100C2000D0F807302D4DEB619FED2D0A2D4B83ED54
:100C3000020A2B465B785B1C6B704DE08378012BBE
:100C400013D18388254DA5F84830C388A5F84A30CC
:100C50000389A5F84C304389A5F84E308389A5F85F
:100C60005030C389A5F8523036E08378042B33D155
:100C7000B0F9043000EE103AB8EEC00ADFED1A0AFF
:100C800020EE200A154B83ED0E0AB0F9063000EE77
:100C9000103AB8EEC00ADFED140A20EE200A0F4B1E
:100CA00083ED0F0AB0F9083000EE103AB8EEC00A32
:100CB000DFED0D0A20EE200A084B83ED100AB0F993
:100CC0000A3000EE103AB8EEC00ADFED070A20EE57
:100CD000200A024B83ED110A00BF4AE74C6B01204A
:100CE00000000000EC6B012017B7D13810B50446A6
:100CF0003E48007838B9AA2C05D101203B4908703C
:100D00003B48047070E039480078012805D1022082
:100D1000364908703648447066E034480078022846
:100D200005D1032031490870314884705CE02F48B8
:100D3000007803280CD12C2C0AD804202B490870E9
:100D40002B48C4702B48047000202B4908704BE0DE
:100D500026480078042819D126480078002815DD97
:100D600024480078401E234908702348007822490F
:100D70000978491C204A1170001D1D490C541D485A
:100D8000007868BB0520194908702DE017480078E5
:100D900005280DD106201549087017480078164916
:100DA0000978491C144A1170001D11490C541BE0AC
:100DB0000E480078062814D100200C4908700E480F
:100DC0000078001D0A490C549FED0C0A0C4880ED78
:100DD000000A09480078401DC1B20548FFF7C2FE6D
:100DE00002E000200149087010BD00002408002026
:100DF000B86B01202208002023080020000000001A
:100E0000EC6B012010B500F0E7F81E48007E10B131
:100E100000F026F90AE01C48407E10B100F04CFAC0
:100E200004E01A48407E08B100F098F9184840895B
:100E3000B0F5E16F0DD116480089B0F5E16F08D12A
:100E40001448007828B914480068401D1249086009
:100E500002E00020104908600F480068B0F5FA6F02
:100E600003D301200D49087002E000200B490870EF
:100E70000A480078012802D108F00EF801E008F0D5
:100E80002DF910BD4C8A01202C8A0120708A012086
:100E9000B06C01201C090020F0000020F4000020AC
:100EA00010B52DED088BB0EE408AF0EE608AB0EE02
:100EB000419A404890ED000AF0EE409AF5EEC09A53
:100EC000F1EE10FA11D83C4880EDA08AC0EDB48A4A
:100ED00080ED789A0020394908709FED390A394829
:100EE00080ED000ABDEC088B10BD34480078C0B915
:100EF000314880EDA08AC0EDB48A80ED789A3248FE
:100F000080ED008A3148C0ED008A314880ED009ABA
:100F10009FED2B0A2B4880ED000A0120274908701D
:100F2000E0E7294890ED000A38EE400AB0EE40BAFA
:100F3000264890ED000A38EEC00AB0EE40AA2448D8
:100F400090ED000A39EE400ADFED220A20EE200A79
:100F5000F0EE40AA6BEE0B0A4AEE0A0A4AEEAA0A23
:100F6000B0EE600A0FF0E1FB1648D0ED000A30EE5B
:100F7000200A80ED000A144880ED008A1348C0ED75
:100F8000008A134880ED009A0E4890ED000AB4EEF6
:100F9000E90AF1EE10FA0BDB074880EDA08AC0EDFC
:100FA000B48A80ED789A9FED060A064880ED000A23
:100FB00000BF97E74C0900206803002024010020AF
:100FC0000000000014010020180100201C01002076
:100FD000200100200000C84210B506F0D7FF48B934
:100FE00000201B4948761B4908761B4948761B4957
:100FF000886110BD1648407E38B10020154908763A
:1010000015494876154988611FE01248007E38B1BD
:1010100000200F494876104948761049886114E04D
:101020000D48407E38B100200949487609490876C4
:101030000A49886109E00948806930B10020044903
:101040004876044908760449487600BFD1E7000095
:101050002C8A01204C8A0120708A0120FC0B002080
:1010600010B52DED048B9FED370AB0EE409A36484F
:10107000C079012805D0002034490876BDEC048BE6
:1010800010BD3248007E00B9F8E7304890ED080AFC
:10109000DFED2C0A30EE200A80ED080A90ED070AF9
:1010A000D0ED040A9FED271A00EE810A80ED070AB1
:1010B000D0ED070AB0EE600A0FF032FA2348D0ED07
:1010C000010A90ED031A41EE000AB0EE608AD0EDFD
:1010D000070AB0EE600A0DF0C7FE1C48D0ED000A0A
:1010E00090ED031A41EE000AF0EE608A90ED020ADC
:1010F000B0EE401AF0EE480AB0EE680AFFF7D0FEF4
:10110000124890ED070ADFED120A20EE200A11487E
:1011100080ED280A0D4890ED050AB5EEC00AF1EE03
:1011200010FA0DDD90ED080AD0ED050AB4EEE00AE4
:10113000F1EE10FA04DB00200449087606498861C4
:1011400000BF9BE70AD7A33B008A01204C8A0120FD
:10115000ED2E654268030020FC0B002010B52DED3C
:10116000088B9FED4F0AB0EE40BA4E48C079012877
:1011700005D000204C494876BDEC088B10BD4A488C
:10118000407E00B9F8E7484890ED080ADFED440AD0
:1011900030EE200A80ED080A90ED070AD0ED040A2F
:1011A0009FED3F1A00EE810A80ED070A90ED078A55
:1011B000007E012822D1F0EE000A68EE200AB0EE8F
:1011C000600A0FF0ADF93848D0ED000A90ED031A2F
:1011D000F6EE001A21EE211AF0EE608A41EE008A46
:1011E000B0EE480A0FF09CF92F48D0ED010A90EDBF
:1011F000031AB0EE609A01EE009A29E0B0EE480AB8
:101200000FF08EF9F0EE409AB0EE480A0DF02CFE89
:10121000B0EE40AAB7EE000A09EEA90AF0EE40AA25
:10122000214890ED030A60EE0A0A80EEAA0AD0ED8A
:10123000000A70EE208A90ED030A20EE290A20EEC3
:101240000A0AC0EE2A0A90ED010A30EE809A00BF29
:10125000154890ED020AB0EE401AF0EE490AB0EEE1
:10126000680AFFF71DFE9FED110A114880ED280A5C
:101270000D4890ED050AB5EEC00AF1EE10FA0DDD4D
:1012800090ED080AD0ED050AB4EEE00AF1EE10FA8E
:1012900004DB0020044948760649886100BF6BE7FB
:1012A0000AD7A33B008A0120708A012000000000B9
:1012B00068030020FC0B002010B52DED068B9FED80
:1012C000410AB0EE40AA4048C079012805D000206C
:1012D0003E494876BDEC068B10BD3C48407E00B9C7
:1012E000F8E73A4890ED070ADFED360A30EE200ABB
:1012F00080ED070AD0ED040A9FED351A60EE810AF1
:1013000090ED071A60EE810AB0EE600A0FF008F95E
:101310002E48D0ED030A20EE200AB0EE408A90ED70
:10132000000AF0EE408A90ED010AB0EE409A90ED8E
:10133000020AF0EE409A007E20B101280AD002286D
:1013400018D10FE0214890ED000A30EE080AF0EEC7
:10135000408A10E01D4890ED010A30EE080AB0EE18
:10136000409A08E0194890ED020A30EE080AF0EEC3
:10137000409A00E000BF00BFB0EE691AF0EE490AE3
:10138000B0EE680AFFF78CFD9FED120A124880ED5F
:10139000280A0E4890ED050AB5EEC00AF1EE10FAE3
:1013A0000DDD90ED070AD0ED050AB4EEE00AF1EE8E
:1013B00010FA04DB0020054948760849886100BF1F
:1013C00088E700000AD7A33B008A01202C8A01206D
:1013D000D00FC9400000000068030020FC0B002073
:1013E0009FED040A044880ED000A002003490870BC
:1013F00070470000000000001401002024010020BC
:1014000008B500BF13F01CFE00900AE0FFF7FAFCDD
:101410000448408E401C034948860521684612F066
:1014200035FFF3E7B88901201CB50121022006F041
:101430005DFC4FF40070009001208DF80400002046
:101440008DF8060003208DF8050001208DF80700B7
:101450006946044803F058FA4FF40071014803F05C
:10146000BEFA1CBD0004024070B5044600251021E0
:101470000A4803F0B4FAFF2141EA042141F4004094
:1014800012F05CF8002012F059F8050A1021034808
:1014900003F0A7FA00BF284670BD00000008024014
:1014A00070B504462021094803F099FA002141EA69
:1014B000042141F4004012F041F8C5B22021034854
:1014C00003F08FFA00BF284670BD000000080240FC
:1014D00070B504460D461021074803F080FA45EA2E
:1014E0000421C1F30E0012F029F81021024803F084
:1014F00078FA00BF70BD00000008024070B50446D5
:101500000D462021074803F06AFA45EA0421C1F399
:101510000E0012F013F82021024803F062FA00BF17
:1015200070BD00000008024010B54FF4407005F097
:1015300003FA04F0BBFA07F009F905F007FA04F022
:101540009DFAFFF7DFF94FF4FA6010F0D7F907F0D2
:10155000DBFD10F0AFF810B90020144908710BF052
:1015600053FB0BF0C9FB0BF047FC0BF047FA0BF0F9
:1015700037F9FFF759FF4FF400610D4803F02FFAD8
:101580004FF480510A4803F02CFA4FF48071094857
:1015900003F027FA4FF4FA6010F0B0F905F074FA8E
:1015A0009FED050A054880ED1E0A10BD6C1600204F
:1015B00000000240000802400000B442246D0120F7
:1015C00070B50446DDE9046523B11DB1D01D80B2BC
:1015D000B04201DD002070BDAA201870BB205870F9
:1015E0009C70100AD8701A71597106202880012049
:1015F000F1E7052002F0A4FE90ED010A80ED000A5B
:1016000090ED020A80ED010A90ED060ADFED160A60
:1016100080EE201A80ED021A90ED040A80ED030A94
:1016200090ED050A80ED040A90ED000AD0ED020A63
:1016300030EE200AD0ED010AB0EE001A01EE200AC9
:10164000D0ED030A9FED091A01EE200AD0ED040A3D
:101650009FED071A01EE200A80ED050A90ED050ABC
:1016600080ED070A7047000067BFFF42021944BFC0
:101670007E0BDE3F90ED010A80ED000A90ED020A3C
:1016800080ED010A90ED030A80ED020A90ED080A50
:10169000DFED1D0A80EE201A80ED031A90ED050A99
:1016A00080ED040A90ED060A80ED050A90ED070A28
:1016B00080ED060A90ED000AD0ED030A30EE200A14
:1016C000D0ED010A90ED021A70EE810AB0EE081A10
:1016D00001EE200AD0ED040A9FED0C1A01EE200A5B
:1016E000D0ED050A9FED0A1A01EE200AD0ED060A98
:1016F0009FED081A01EE200A80ED070A90ED070A17
:1017000080ED090A704700006D85AC431736083F2D
:1017100020F5F6BF2BF11740012001498860704782
:1017200000300240002101709FED080A80ED010A9F
:101730009FED060A80ED020A9FED040A80ED030A80
:10174000018241820175012141757047000000004E
:1017500010B5F0EE612A0024047569B162B1F0EEB3
:10176000E21AB0EEC23A71EE831A9FED683AF4EED7
:10177000C31AF1EE10FA08DD0024047004824482DA
:10178000012404750024447510BDF0EEC01A9FEDCD
:10179000603AF4EEC31AF1EE10FA13D2F0EEE01A4A
:1017A0009FED5B3AF4EEC31AF1EE10FA0AD2F0EEB6
:1017B000C11A9FED573AF4EEC31AF1EE10FA01D2B6
:1017C000012400E000242346047814B1012C7CD1CC
:1017D0001AE0B3B1048A641CA4B20482642C12D34C
:1017E0000124047000244482DFED4A1AC0ED011A7E
:1017F000DFED481AC0ED021ADFED461AC0ED031AFC
:1018000001E0002404827DE0002B6FD0448A641C38
:1018100003EE104AB8EE433AF7EE003A83EE834AFD
:10182000F0EE441A90ED013AD0ED013A70EE633AD1
:1018300003EEA13A80ED013A90ED023AD0ED023A82
:1018400070EEE33A03EEA13A80ED023A90ED033AEE
:10185000D0ED033A71EE633A03EEA13A80ED033A1C
:10186000448A641CA4B24482B4F5C87F3CD32A4C99
:1018700094ED003ADFED293A23EE233AD0ED013A18
:101880009FED274A04EE233A84ED003A94ED013AA5
:10189000DFED223A23EE233AD0ED023A9FED204AC3
:1018A00004EE233A84ED013A94ED023ADFED1B3A5F
:1018B00023EE233AD0ED033A9FED194A04EE233A82
:1018C00084ED023A94ED003A00E018E080ED013A30
:1018D00094ED013A80ED023A94ED023A80ED033A3C
:1018E000002404700482448208E0FFE700240470AE
:1018F00004824482012404750024447502E000241B
:10190000047000BF00BF00BF3EE700000000484277
:10191000CDCC4C3D000000001858012072F97F3FEB
:1019200017B7D138002202709FED090A80ED010A35
:101930009FED070A80ED020A9FED050A80ED030A7C
:101940009FED040A80ED040A8282C28201837047FF
:1019500000000000286B6E4E70B52DED0C8B044618
:10196000F0EE409AB0EE60AAF0EE41AAB0EE61BA95
:10197000F0EE42BAB0EE62CA0D462DB120780228D0
:1019800002D02078032802D1BDEC0C8B70BD2078EA
:1019900018B9012020700020E08294ED010A70EE59
:1019A0000BCA94ED020A30EE2BDA94ED030A70EEC6
:1019B0000CDA39EEEC9A3AEE4D8A7AEEED8A69EE5F
:1019C000090A48EE080A48EEA80AB0EE600A0EF0CE
:1019D000ACFE84ED040A94ED010ADFED1C0A00EE72
:1019E000890A84ED010A94ED020ADFED180A00EE7F
:1019F000880A84ED020A94ED030ADFED140A00EE72
:101A0000A80A84ED030AE08A401CE08294ED040AEF
:101A1000F1EE040AB4EEE00AF1EE10FA08D2A08A60
:101A2000401C80B2A082C82804D30220207001E0AC
:101A30000020A082E08A218B884204DB20780128E4
:101A400001D10320207000BF9EE700000AD7A33C0D
:101A500010B500F07FF83648408AB0F5FA7F05DC13
:101A600034480068401C3349086002E000203149D6
:101A70000860304800680A2803DD022002F046FEB4
:101A800002E0032002F042FE2949098940F2145283
:101A9000914201DD012100E00021084660B12649A4
:101AA000097849B925490978012905D10221234A34
:101AB00011700021224A91611F4908701C488089D9
:101AC000B0F5FA7F01D9012000E00020044674B18E
:101AD0001C48007858B902F075FE10B9002002F0D9
:101AE00015FE02F06FFE012801D117490870154854
:101AF00004700F48C089B0F5FA7F01D9012000E0D9
:101B0000002004468CB11148007870B902F05AFEEA
:101B100010B9002002F0FAFD02F054FE012804D1B1
:101B200006F088FA01200A4908700848047010BDC0
:101B3000B06C01203000002034000020210800207B
:101B4000FC0B002035000020490900203600002051
:101B50004A09002010B52DED048B8848C08800EE9E
:101B6000100AB8EE400ADFED860A30EE600ADFEDBB
:101B7000850A80EE201AB0EE418A8048008800EE87
:101B8000100AB8EE400ADFED7E0A30EE600ADFEDA3
:101B90007D0A80EE201AF0EE418A7848408800EEF7
:101BA000100AB8EE400ADFED760A30EE600ADFED8B
:101BB000750A80EE201AB0EE419A7048808800EED7
:101BC000100AB8EE400ADFED6E0A30EE600ADFED73
:101BD0006D0A80EE201AF0EE419ABEEE080AB4EECD
:101BE000C08AF1EE10FA0CD2B6EE080AF4EEC09AF2
:101BF000F1EE10FA05DD64488068401C6249886097
:101C000002E0002060498860BEEE080AB4EEC08A97
:101C1000F1EE10FA0CD2BEEE080AF4EEC09AF1EE24
:101C200010FA05D258480068401C5749086002E085
:101C3000002055490860B6EE080AB4EEC08AF1EEFD
:101C400010FA0CDDBEEE080AF4EEC09AF1EE10FABE
:101C500005D24D484068401C4B49486002E00020D6
:101C600049494860B6EE080AB4EEC08AF1EE10FAAF
:101C70000CDDB6EE080AF4EEC09AF1EE10FA05DDBE
:101C80004148C068401C4049C86002E000203E490D
:101C9000C860BEEE080AF4EEC08AF1EE10FA0CD26B
:101CA000BEEE080AB4EEC09AF1EE10FA05D236483C
:101CB0000069401C3449086102E000203249086193
:101CC000BEEE080AF4EEC08AF1EE10FA0CD2B6EEBF
:101CD000080AB4EEC09AF1EE10FA05DD2A488069D0
:101CE000401C2949886102E0002027498861B6EE3E
:101CF000080AF4EEC08AF1EE10FA0CDDBEEE080A16
:101D0000B4EEC09AF1EE10FA05D21F484069401CAB
:101D10001D49486102E000201B494861B6EE080AEF
:101D2000F4EEC08AF1EE10FA0CDDB6EE080AB4EE5D
:101D3000C09AF1EE10FA05DD1348C069401C124943
:101D4000C86102E000201049C8610F4880689628E9
:101D500006D3002002F0DAFC00200B4988600860FE
:101D600009480068322806D3012002F0CFFC002089
:101D7000054988600860BDEC048B10BDF089012026
:101D800000803B4500007A440C8A01209FED1E0A2A
:101D90001E4880ED0A0A9FED1C0A80ED1E0A9FED89
:101DA0001A0A80ED320A9FED180A80ED460A9FED6F
:101DB000160A80ED5A0A9FED140A80ED6E0A9FED17
:101DC000120A80ED820A9FED100A80ED960A9FEDBF
:101DD0000E0A80EDAA0A9FED0C0A80EDBE0A9FED67
:101DE0000A0A80EDD20A9FED080A80EDE60A90ED1E
:101DF000A10A80EDA00A90EDB50A80EDB40A90ED3D
:101E0000290A80ED280A70470000000068030020BE
:101E1000014609B11E2901D904207047062905D1C0
:101E20000F48C079012801D00620F6E70A2905D01D
:101E30000B2903D00C2901D0112905D10848C079FC
:101E4000012801D00620E8E7182907D105480078C5
:101E500010B90348807908B10620DEE70020DCE7EE
:101E6000008A01202108002090ED000AB4EE400A0B
:101E7000F1EE10FA5CD190ED000ADFEDFB0AB4EE52
:101E8000E00AF1EE10FA53DC90ED000ADFEDF70AFC
:101E9000B4EEE00AF1EE10FA4AD390ED010AB4EE86
:101EA000400AF1EE10FA43D190ED010ADFEDEE0A9F
:101EB000B4EEE00AF1EE10FA3ADC90ED010ADFED43
:101EC000EB0AB4EEE00AF1EE10FA31D390ED0A0A13
:101ED000B4EE400AF1EE10FA2AD190ED0A0ADFEDD5
:101EE000E20AB4EEE00AF1EE10FA21DC90ED0A0A03
:101EF000DFEDDE0AB4EEE00AF1EE10FA18D390ED51
:101F0000090AB4EE400AF1EE10FA11D190ED090A77
:101F1000DFEDD50AB4EEE00AF1EE10FA08DC90ED40
:101F2000090ADFEDD20AB4EEE00AF1EE10FA1CD293
:101F30009FEDCF0A80ED0A0A9FEDCD0A80ED090AD8
:101F40009FEDCB0A80ED080A9FEDC90A80ED050AD6
:101F50009FEDC70A80ED060A9FEDC50A80ED070ACE
:101F60009FEDC30A80ED0B0A704790ED000AD0ED9B
:101F7000010A30EE600A80ED080A90ED080AB4EE1E
:101F8000400AF1EE10FA11D190ED080ADFEDB60A21
:101F9000B4EEE00AF1EE10FA08DC90ED080ADFED8D
:101FA000B30AB4EEE00AF1EE10FA1CD29FEDB00ACB
:101FB00080ED0A0A9FEDAE0A80ED090A9FEDAC0A9A
:101FC00080ED080A9FEDAA0A80ED050A9FEDA80A98
:101FD00080ED060A9FEDA60A80ED070A9FEDA40A90
:101FE00080ED0B0AC0E7816C01297CD190ED0A1AC3
:101FF000F0EE410A90ED0A1AD0ED081A31EE211ADE
:1020000080ED0A1A90ED0A1AD0ED101AF1EE611A5D
:10201000B4EEE11AF1EE10FA05D290ED101AB1EE1D
:10202000411A80ED0A1A90ED0A1AD0ED101AB4EE9A
:10203000E11AF1EE10FA03DD90ED101A80ED0A1AA4
:1020400090ED031AD0ED0A1A21EE211A80ED061A3E
:1020500090ED061AD0ED0E1AF1EE611AB4EEE11A07
:10206000F1EE10FA05D290ED0E1AB1EE411A80EDA4
:10207000061A90ED061AD0ED0E1AB4EEE11AF1EE42
:1020800010FA03DD90ED0E1A80ED061A90ED021A9B
:10209000D0ED081A21EE211A80ED051A90ED051AEF
:1020A000D0ED0D1AF1EE611AB4EEE11AF1EE10FA6C
:1020B00005D290ED0D1AB1EE411A80ED051A90EDA2
:1020C000051AD0ED0D1AB4EEE11AF1EE10FA03DDA7
:1020D00090ED0D1A80ED051A90ED081AD0ED091A51
:1020E00031EE611A00E0C5E0D0ED041A21EE211AAC
:1020F00080ED071A90ED071AD0ED0F1AF1EE611A74
:10210000B4EEE11AF1EE10FA05D290ED0F1AB1EE2D
:10211000411A80ED071A90ED071AD0ED0F1AB4EEB0
:10212000E11AF1EE10FA03DD90ED0F1A80ED071AB7
:1021300090ED051AD0ED061A31EE211AD0ED071AEE
:1021400031EE210A80ED0B0A90ED0B1AD0ED0C1A3E
:10215000F1EE611AB4EEE11AF1EE10FA05D290ED4B
:102160000C1AB1EE411A80ED0B1A90ED0B1AD0ED5E
:102170000C1AB4EEE11AF1EE10FA03DD90ED0C1A30
:1021800080ED0B1A90ED0B1AB4EE401AF1EE10FA36
:1021900069D0B5EEC00AF1EE10FA06DD90ED081A2E
:1021A000B5EEC01AF1EE10FA0BDCB5EEC00AF1EE96
:1021B00010FA58D290ED081AB5EEC01AF1EE10FAE6
:1021C00051D2C0ED0A0A90ED031AD0ED0A1A21EEA1
:1021D000211A80ED061A90ED061AD0ED0E1AF1EED6
:1021E000611AB4EEE11AF1EE10FA05D290ED0E1A72
:1021F000B1EE411A80ED061A90ED061AD0ED0E1AD6
:10220000B4EEE11AF1EE10FA03DD90ED0E1A80ED56
:10221000061A90ED051AD0ED061A31EE211AD0ED0E
:10222000071A31EE211A80ED0B1A90ED0B1AD0ED42
:102230000C1AF1EE611AB4EEE11AF1EE10FA05D2C1
:1022400090ED0C1AB1EE411A80ED0B1A90ED0B1ABD
:10225000D0ED0C1AB4EEE11AF1EE10FA03DD90EDB8
:102260000C1A80ED0B1AF8E1A5D46853A5D468D3F5
:1022700000000000816C02297ED1D0ED0A0A90EDA9
:10228000081A70EE810AC0ED0A0AD0ED0A0A90ED34
:10229000101AB1EE411AF4EEC10AF1EE10FA05D2AD
:1022A000D0ED100AF1EE600AC0ED0A0AD0ED0A0A7C
:1022B00090ED101AF4EEC10AF1EE10FA03DDD0ED44
:1022C000100AC0ED0A0AD0ED030A90ED0A1A60EE7A
:1022D000810AC0ED060AD0ED060A90ED0E1AB1EEA5
:1022E000411AF4EEC10AF1EE10FA05D2D0ED0E0A51
:1022F000F1EE600AC0ED060AD0ED060A90ED0E1A66
:10230000F4EEC10AF1EE10FA03DDD0ED0E0AC0EDD5
:10231000060AD0ED020A90ED081A60EE810AC0EDBF
:10232000050AD0ED050A90ED0D1AB1EE411AF4EE52
:10233000C10AF1EE10FA05D2D0ED0D0AF1EE600AF5
:10234000C0ED050AD0ED050A90ED0D1AF4EEC10AB4
:10235000F1EE10FA03DDD0ED0D0AC0ED050AD0ED67
:10236000080A90ED091A70EEC10A90ED041A60EEA9
:10237000810AC0ED070A00E072E0D0ED070A90ED97
:102380000F1AB1EE411AF4EEC10AF1EE10FA05D2BD
:10239000D0ED0F0AF1EE600AC0ED070AD0ED070A92
:1023A00090ED0F1AF4EEC10AF1EE10FA03DDD0ED54
:1023B0000F0AC0ED070AD0ED050A90ED061A70EE7F
:1023C000810A90ED071A30EE810A80ED0B0AD0EDFC
:1023D0000B0A90ED0C1AB1EE411AF4EEC10AF1EEBF
:1023E00010FA05D2D0ED0C0AF1EE600AC0ED0B0A2E
:1023F000D0ED0B0A90ED0C1AF4EEC10AF1EE10FAD2
:1024000003DDD0ED0C0AC0ED0B0AD0ED0A0A90ED09
:10241000131AD0ED0B1A71EEC01A41EE210AC0ED6D
:102420000A0AD0ED0A0A90ED101AB1EE411AF4EE44
:10243000C10AF1EE10FA05D2D0ED100AF1EE600AF1
:10244000C0ED0A0AD0ED0A0A90ED101AF4EEC10AA6
:10245000F1EE10FA03DDD0ED100AC0ED0A0AFCE03F
:1024600090ED0B0AD0ED0C0AB4EEE00AF1EE10FA92
:1024700006D890ED080AB5EEC00AF1EE10FA11DCAC
:1024800090ED0B0AD0ED0C0AF1EE600AB4EEE00A12
:10249000F1EE10FA23DB90ED080AB5EEC00AF1EE7A
:1024A00010FA1CD290ED080AB5EEC00AF1EE10FA4F
:1024B00002DD90ED080A03E090ED080AB1EE400A53
:1024C000D0ED110AB4EEE00AF1EE10FA07D290ED69
:1024D0000A0AD0ED080A30EE200A80ED0A0A90EDD3
:1024E0000A0AD0ED100AF1EE600AB4EEE00AF1EE4D
:1024F00010FA05D290ED100AB1EE400A80ED0A0AFA
:1025000090ED0A0AD0ED100AB4EEE00AF1EE10FAEE
:1025100003DD90ED100A80ED0A0A90ED030AD0ED7C
:102520000A0A20EE200A80ED060A90ED060AD0ED98
:102530000E0AF1EE600AB4EEE00AF1EE10FA05D2EE
:1025400090ED0E0AB1EE400A80ED060A90ED060A03
:10255000D0ED0E0AB4EEE00AF1EE10FA03DD90EDD4
:102560000E0A80ED060A90ED020AD0ED080A20EE70
:10257000200A80ED050A90ED050AD0ED0D0AF1EE76
:10258000600AB4EEE00AF1EE10FA05D290ED0D0A01
:10259000B1EE400A80ED050A90ED050AD0ED0D0A76
:1025A000B4EEE00AF1EE10FA03DD90ED0D0A80EDD5
:1025B000050A90ED080AD0ED090A30EE600AD0ED68
:1025C000040A20EE200A80ED070A90ED070AD0EDFC
:1025D0000F0AF1EE600AB4EEE00AF1EE10FA05D24D
:1025E00090ED0F0AB1EE400A80ED070A90ED070A60
:1025F000D0ED0F0AB4EEE00AF1EE10FA03DD90ED33
:102600000F0A80ED070A90ED050AD0ED060A30EEBC
:10261000200AD0ED070A30EE200A80ED0B0A90ED7B
:102620000B0AD0ED0C0AF1EE600AB4EEE00AF1EE0E
:1026300010FA05D290ED0C0AB1EE400A80ED0B0ABB
:1026400090ED0B0AD0ED0C0AB4EEE00AF1EE10FAB0
:1026500003DD90ED0C0A80ED0B0A90ED0B0AB4EE51
:10266000400AF1EE10FA2AD190ED0B0ADFED1B0AB9
:10267000B4EEE00AF1EE10FA21DC90ED0B0ADFED8A
:10268000180AB4EEE00AF1EE10FA18D390ED0A0A37
:10269000B4EE400AF1EE10FA11D190ED0A0ADFED26
:1026A0000F0AB4EEE00AF1EE10FA08DC90ED0A0A27
:1026B000DFED0B0AB4EEE00AF1EE10FA07D29FED5F
:1026C000090A80ED0A0A9FED070A80ED0B0A90EDDA
:1026D000080A80ED090A00BF46E40000A5D468534B
:1026E000A5D468D30000000090ED000AD0ED010AE7
:1026F00030EE600A80ED080A90ED080ADFED900ADE
:10270000B4EEE00AF1EE10FA07DB90ED080ADFED17
:102710008D0A30EE600A80ED080A90ED080ADFEDC0
:102720008A0AB4EEE00AF1EE10FA07D890ED080A32
:10273000DFED840A30EE200A80ED080A90ED0B0AE6
:10274000D0ED0C0AB4EEE00AF1EE10FA06D890EDE6
:10275000080AB5EEC00AF1EE10FA11DC90ED0B0A92
:10276000D0ED0C0AF1EE600AB4EEE00AF1EE10FAD8
:1027700023DB90ED080AB5EEC00AF1EE10FA1CD288
:1027800090ED080AB5EEC00AF1EE10FA02DD90ED08
:10279000080A03E090ED080AB1EE400AD0ED110AF4
:1027A000B4EEE00AF1EE10FA07D290ED0A0AD0ED8D
:1027B000080A30EE200A80ED0A0A90ED0A0AD0EDF0
:1027C000100AF1EE600AB4EEE00AF1EE10FA05D25A
:1027D00090ED100AB1EE400A80ED0A0A90ED0A0A67
:1027E000D0ED100AB4EEE00AF1EE10FA03DD90ED40
:1027F000100A80ED0A0A90ED030AD0ED0A0A20EED5
:10280000200A80ED060A90ED060AD0ED0E0AF1EEE0
:10281000600AB4EEE00AF1EE10FA05D290ED0E0A6D
:10282000B1EE400A80ED060A90ED060AD0ED0E0AE0
:10283000B4EEE00AF1EE10FA03DD90ED0E0A80ED41
:10284000060A90ED020AD0ED080A20EE200A80ED7B
:10285000050A90ED050AD0ED0D0AF1EE600AB4EE1E
:10286000E00AF1EE10FA05D290ED0D0AB1EE400A41
:1028700080ED050A90ED050AD0ED0D0AB4EEE00AF0
:10288000F1EE10FA03DD90ED0D0A80ED050A90EDF2
:10289000080AD0ED090A30EE600AD0ED040A20EEF5
:1028A000200A80ED070A90ED070AD0ED0F0AF1EE3D
:1028B000600AB4EEE00AF1EE10FA05D290ED0F0ACC
:1028C000B1EE400A80ED070A90ED070AD0ED0F0A3D
:1028D000B4EEE00AF1EE10FA03DD90ED0F0A80EDA0
:1028E000070A90ED050AD0ED060A30EE200AD0ED79
:1028F000070A30EE200A80ED0B0A90ED0B0AD0EDAE
:102900000C0AF1EE600AB4EEE00AF1EE10FA05D21C
:1029100090ED0C0AB1EE400A80ED0B0A90ED0B0A27
:10292000D0ED0C0AB4EEE00AF1EE10FA03DD90ED02
:102930000C0A80ED0B0A90ED080A80ED090A704739
:10294000000034430000B443000034C310B52DED43
:10295000048B86B003200BF093FAFE480078401CED
:10296000FC49087008460078022805DBFA48FFF7A2
:102970007BFA0020F749087004200BF081FAF64832
:102980005030FFF771FAF5480078401CF3490870A1
:102990000846007802287DDB00200870F048807926
:1029A000012800D100E000200446002C69D0ED4849
:1029B0000078002865D105F015FF9FEDEB0AEB4884
:1029C00080EDAA0A9FEDE80A80EDBE0A9FEDE60AB7
:1029D00080EDD20A9FEDE40A80EDE60AE448007932
:1029E00032284ED3E248B0F9140000EE100AB8EED7
:1029F000C00AE04880ED000ADD48B0F9160000EE9C
:102A0000100AB8EEC00ADC4880ED000A0120DB495C
:102A10000870DB480078022833D1DA48007880B3A8
:102A2000D348B0F9140000EE100AB8EEC00AD1483D
:102A3000D0ED000A30EE600ADFEDD30A20EE200A66
:102A4000B0EE408ACA48B0F9160000EE100AB8EE9F
:102A5000C00AC948D0ED000A30EE600ADFEDCA0AAC
:102A600020EE200AF0EE408A9FEDC80AC84801F027
:102A7000C5FAF0EE680AB0EE480AC54801F07AFBE4
:102A800000BFB8480470B648807918B101200BF037
:102A9000F7F900E013E0B048A030FFF7E5F9AE48E1
:102AA000F030FFF7E1F902200BF0EAF905F0FCFF46
:102AB000B848FFF7D9F9B7485030FFF7D5F90520E6
:102AC0000BF0DEF9A948FFF7CFF9A8485030FFF71F
:102AD000CBF906200BF0D4F9A448A030FFF704FE90
:102AE00007200BF0CDF905F0D5FE09F07FFB0020A3
:102AF00009F0A6F948B1002009F096F99B48D0EDFD
:102B0000500A30EE200A80ED500A012009F098F9B1
:102B100048B1012009F088F99448D0ED3C0A30EE24
:102B2000200A80ED3C0A022009F08AF948B102200F
:102B300009F07AF98D48D0ED640A30EE200A80ED74
:102B4000640A8548F038FFF78FF98348A038FFF70B
:102B50008BF981485038FFF787F9844803F000F873
:102B60008D48007810B14FF4486001E040F686309F
:102B70008A4908808A48807A002878D0894890ED70
:102B80006F0A8948D0ED1F0A20EE200AB0EE408A75
:102B9000844890ED350A8548D0ED1F0A20EE200AC2
:102BA000F0EE408A7F4890ED180A8148D0ED1F0A68
:102BB00020EE200AB0EE409A7A4890ED520A7D4805
:102BC000D0ED1F0A20EE200AF0EE409A18EE100A0F
:102BD0000BF01FFF18B99FED640AB0EE408A18EEA3
:102BE000900A0BF016FF18B99FED5F0AF0EE408ACD
:102BF00019EE100A0BF00DFF18B99FED5B0AB0EE4D
:102C0000409A19EE900A0BF004FF18B99FED560A8E
:102C1000F0EE409A5548D0ED970A6048B0F90000B0
:102C200000EE100AB8EEC00A30EE800A30EE080A54
:102C3000614880ED000A4D4890ED470A30EE280AC1
:102C40005E4880ED000A494890ED5B0A30EE090AC3
:102C5000B1EE400A5A4880ED000A444890ED6F0AF0
:102C600030EE290A574880ED000A23E0FFE73F488D
:102C7000D0ED970A4948B0F9000000EE100AB8EE0E
:102C8000C00A30EE800A4C4880ED000A374890EDCB
:102C9000470A4A4880ED000A344890ED5B0AB1EEDD
:102CA000400A474880ED000A304890ED6F0A4548D9
:102CB00080ED000A4448D0ED000A9FED441A9FEDD4
:102CC000430A00EE810AB0EE402A4148D0ED000AE6
:102CD0009FED3E1A9FED3D0A00EE810AF0EE402A7C
:102CE000F4EEC22AF1EE10FA06D2B0EE620AF0EE6D
:102CF000422AB0EE402A00BFB0EE621AF0EE420A5D
:102D00002D4890ED000A00F0FDF82B4880ED000AF8
:102D100090ED000A2A48D0ED000A30EE600A2748FC
:102D2000D0ED000A30EE600A2648D0ED000A30EE01
:102D3000600ABDEEC00A10EE100A00B225490880F4
:102D40001D4890ED000A1E48D0ED000A30EE200A22
:102D50001A4841E0380000204805002039000020D2
:102D6000008A0120B100002000000000680300205C
:102D70004C6B012074000020780000207C000020B3
:102D8000700000207D0000200AD7233C0AD7A33B17
:102D9000200C002088060020240900204C00002080
:102DA0005C5101208C4F01207053012018520120EA
:102DB0006C510120C45201203C0000204000002042
:102DC0004400002048000020400900200000FA4490
:102DD000440900207C080020D0ED000A30EE200AD3
:102DE0004348D0ED000A30EE600ABDEEC00A10EE96
:102DF000100A00B248803F4890ED000A3E48D0EDEE
:102E0000000A30EE600A3D48D0ED000A30EE200A9C
:102E10003748D0ED000A30EE200ABDEEC00A10EEB1
:102E2000100A00B28880334890ED000A3248D0ED95
:102E3000000A30EE200A3148D0ED000A30EE600A78
:102E40002B48D0ED000A30EE200ABDEEC00A10EE8D
:102E5000100A00B2C8800846B0F9000000EE100A5F
:102E6000B8EEC00A8DED020A0846B0F9020000EE85
:102E7000100AB8EEC00A8DED030A0846B0F9040046
:102E800000EE100AB8EEC00A8DED040A0846B0F94B
:102E9000060000EE100AB8EEC00A8DED050A00200B
:102EA00005F08CFBADF80000012005F087FBADF8C4
:102EB0000200022005F082FBADF80400032005F0BB
:102EC0007DFBADF806000E48D0ED181AB0EE611A81
:102ED000D0ED191AF0EE610AD0ED0F1AB0EE610ACA
:102EE000694602A809F09CFC06B0BDEC048B10BD3D
:102EF000480000203C00002044000020400000204A
:102F000098020020F0EE401AF4EEE01AF1EE10FA0A
:102F100002D2B0EE600A7047F4EEC11AF1EE10FA78
:102F200002DDB0EE410AF6E7B0EE610AF3E710B554
:102F300003460C460AB9002010BD002106E0605C83
:102F400000B906E0605C5854481C81B2501E8842AB
:102F5000F5D800BF00205854481C80B2ECE730B5CB
:102F600002460B460020002118E0555C80EA05204F
:102F700000240FE000F400452DB141F2210585EA5F
:102F80004005ADB203E04FF6FF7505EA400528465F
:102F9000651CECB2082CEDD34D1CA9B29942E4DBC0
:102FA00030BD10B50BF0B6FC10BD000010B50749E0
:102FB000074800F01FF938B10649054800F020F82D
:102FC0000021034800F050F810BD000000802020D0
:102FD000A06002400000202010B50749074800F01B
:102FE00009F940B14FF02051044800F009F80021E0
:102FF000024800F039F810BD00800028B860024097
:103000000246094B9A4201D2084801E006481038AE
:1030100001F000531BB1064B0B40C36002E0044BB0
:103020000B40836070470000106402400060024063
:103030007D0F7D0F0246094B9A4201D2084801E0FC
:103040000648103801F000531BB1064B0B40C3601B
:1030500002E0044B0B4083607047000010640240A4
:10306000006002407D0F7D0F21B1026842F0010235
:10307000026003E0026822F0010202607047000073
:10308000016821F00101016000210160416081605F
:10309000C1600161212141614A49884204D13D2139
:1030A000484A103A91608CE046491831884205D16F
:1030B0004FF47461434A103A916082E041493031E3
:1030C000884205D14FF474113E4A103A916078E07D
:1030D0003C494831884205D14FF07461394A103A71
:1030E00091606EE037496031884204D13649354AF3
:1030F000103AD16065E033497831884204D13349D0
:10310000304A103AD1605CE02E499031884204D1B7
:103110002F492C4A103AD16053E02A49A8318842FD
:1031200005D14FF03D51274A103AD16049E0294975
:10313000884204D13D21274A083A116041E02549DF
:103140001831884205D14FF47461224A083A11605F
:1031500037E020493031884205D14FF474111D4ABF
:10316000083A11602DE01B494831884205D14FF0E3
:103170007461184A083A116023E0164960318842A8
:1031800004D11149134A121F11601AE01149783114
:10319000884204D10D490F4A121F116011E00D49F8
:1031A0009031884204D10A490A4A121F116008E08E
:1031B0000849A831884204D14FF03D51054A121FF9
:1031C00011607047106002403D000020400F002059
:1031D00000003D2010640240014600200A6802F011
:1031E00001020AB1012000E0002070470146486852
:1031F00080B2704770B50246002000240025124EB0
:10320000B24201D2114B01E00F4B103B104E0E4069
:1032100036B11E2606EAD124166806EA040502E045
:10322000566906F0800501F000560EB15C6800E0BA
:103230001C68084E344004EA010616B10DB10120A5
:1032400000E0002070BD00001064024000600240F9
:103250003C0F3C0F7D0F7D0F10B501F080034BB18B
:1032600022B1436943F08003436103E0436923F0E3
:103270008003436180290BD02AB1036801F01E044A
:103280002343036004E0036801F01E04A3430360CA
:1032900010BD000010B500220268134B1A40CC6824
:1032A0000B6823434C6923438C692343CC69234334
:1032B0000C6A23434C6A23438C6A23434C6B23439D
:1032C0008C6B23431A430260426922F00702D1E962
:1032D0000B3423431A4342610B6943604B6883609C
:1032E0008B68C36010BD00003F801CF0F848007878
:1032F000AA287DD1F6484078AA28FAD1F4488078E7
:10330000F4490870F248C0784870F1480079887034
:10331000EF484079C870084690ED000ADFEDEE0AEC
:10332000B4EEE00AF1EE10FA11DD90ED000ADFEDE7
:10333000EB0AB4EEE00AF1EE10FA08D290ED000AC2
:10334000DFEDE70A20EE200AE64880ED000AE048BB
:103350008079E0490870DE48C0794870DC48007A1E
:103360008870DB48407AC870084690ED000ADFEDAF
:10337000DA0AB4EEE00AF1EE10FA11DD90ED000A7F
:10338000DFEDD60AB4EEE00AF1EE10FA08D290EDC5
:10339000000ADFEDD30A20EE200AD24880ED000AB1
:1033A000CB48807ACB490870C948C07A4870C84871
:1033B000007B8870C648407BC870084690ED000AC4
:1033C000DFEDC50AB4EEE00AF1EE10FA13DD90ED80
:1033D000000ADFEDC20AB4EEE00AF1EE10FA0AD2FA
:1033E00090ED000ADFEDBE0A20EE200ABD4800E0A5
:1033F0006CE180ED000AB648807BB6490870B4489D
:10340000C07B4870B248007C8870B148407CC8706E
:10341000084690ED000ADFEDB00AB4EEE00AF1EEE6
:1034200010FA11DD90ED000ADFEDAC0AB4EEE00A0F
:10343000F1EE10FA08D290ED000ADFEDA90A20EEB5
:10344000200AA84880ED000AA148807CA1490870A4
:103450009F48C07C48709E48007D88709C48407D95
:10346000C870084690ED000ADFED9B0AB4EEE00A52
:10347000F1EE10FA11DD90ED000ADFED980AB4EEDE
:10348000E00AF1EE10FA08D290ED000ADFED940A9E
:1034900020EE200A934880ED000A8D48807D8D49FA
:1034A00008708B48C07D48708948007E88708848C5
:1034B000407EC870084690ED000ADFED870AB4EE42
:1034C000E00AF1EE10FA11DD90ED000ADFED830A5B
:1034D000B4EEE00AF1EE10FA08D290ED000ADFED4A
:1034E000800A20EE200A7F4880ED000A7848807E1E
:1034F000784908707648C07E48707548007F8870AB
:103500007348407FC870084690ED000AF9EE040A3F
:10351000B4EEE00AF1EE10FA0DDD90ED000AF1EEE6
:10352000040AB4EEE00AF1EE10FA04D290ED000ABB
:103530006C4880ED000A6648807F664908706448E0
:10354000C07F4870624890F820008870604890F80A
:103550002100C870084690ED000AF9EE040AB4EEA6
:10356000E00AF1EE10FA0DDD90ED000AF1EE040A2A
:10357000B4EEE00AF1EE10FA04D290ED000A5948D8
:1035800080ED000A524890F82200524908705048D5
:1035900090F8230048704E4890F8240088704C48FA
:1035A00090F82500C870084690ED000AF9EE040A6C
:1035B000B4EEE00AF1EE10FA0DDD90ED000AF1EE46
:1035C000040AB4EEE00AF1EE10FA04D290ED000A1B
:1035D000444880ED000A3E4890F826003D490870B6
:1035E0003B4890F827004870394890F828008870C8
:1035F000374890F82900C870084690ED000ADFEDC2
:10360000360AB4EEE00AF1EE10FA0DDD90ED000A94
:10361000DFED320AB4EEE00AF1EE10FA04D290EDDA
:10362000000A304880ED000A294890F82A0029490C
:103630000870274890F82B004870254890F82C0017
:103640008870234890F82D00C870084690ED000A55
:10365000DFED210AB4EEE00AF1EE10FA0DDD90ED97
:10366000000ADFED1E0AB4EEE00AF1EE10FA04D211
:1036700090ED000A1B4880ED000A154890F82E00D6
:1036800014490870124890F82F004870104890F8BC
:10369000300088700E4890F83100C870084690EDF0
:1036A000000ADFED0D0AB4EEE00AF1EE10FA0DDDCE
:1036B00090ED000ADFED090AB4EEE00AF1EE10FA2F
:1036C00004D290ED000A074880ED000A7047000020
:1036D000246E0120BC000020002474C90024744919
:1036E0000000C842C000002038B5044672A000683F
:1036F0000090724801780078401C704A1070704841
:1037000044541046007819287ED1182011460870BC
:103710006B4800780F2878D16948007E38B1684836
:10372000017E684A12781DF802008142F3D1002020
:1037300062490870624840786149897801F0070160
:1037400040EA0120604908805D48C0788006400D4D
:103750005B49897840EAE1005B49488058484079F4
:10376000C007400D5649097940EA81005449C9789B
:1037700040EAA11054498880514880790007400DE3
:103780004F49497940EA61004F49C8804C48C079A7
:103790004006400D4A49897940EA21104A4908818A
:1037A0004748407A8007400D4549097A40EA410080
:1037B0004349C97940EAE110434948814048807A49
:1037C000C006400D3E49497A40EAA1003E49888141
:1037D0003B48C07AC0003A49897A40EA61103A49C8
:1037E000C8813748007B3649497B01F0070140EA30
:1037F0000120354908823248807B8006400D3049DF
:10380000497B40EAE10001E054E049E02E4948826A
:103810002B48007CC007400D2949C97B40EA810044
:103820002749897B40EAA110274988822448407CA7
:103830000007400D2249097C40EA61002249C88204
:103840001F48807C4006400D1D49497C40EA2110FC
:103850001D4908831A48007D8007400D1849C97C1E
:1038600040EA41001649897C40EAE1101649488344
:103870001348407DC006400D1149097D40EAA10072
:10388000114988830E48807DC0000D49497D40EA7A
:1038900061100D49C88311F0D9FB0C49086009E09B
:1038A000002005E0064A411C515C1154411CC8B27D
:1038B0001828F7DB38BD00000414243484080020E5
:1038C000D06C012085080020B06C01202009002068
:1038D00010B5012000F030F828B1002004F01AFEE5
:1038E000012000F023F810BD10B5022000F024F8EC
:1038F00028B1012004F00EFE022000F017F810BDE0
:1039000010B5402000F018F828B1022004F002FEA3
:10391000402000F00BF8802000F00EF828B10320C2
:1039200004F0F8FD802000F001F810BD01490860A6
:1039300070470000143C014001460020034A126811
:103940000A400AB1012000E000207047143C014009
:10395000002123498279002A3AD00A461268036876
:103960009A430B461A600A1D126803689A430B1D9E
:103970001A60027911440A6803681A430A60184AF7
:103980000832126803689A43154B08331A601A1DEF
:10399000126803689A43124B0C331A604279102A5A
:1039A0000ED11A1F126803681A430D4B08331A60B0
:1039B0001A1D126803681A43094B0C331A600DE094
:1039C0000749427911440A6803681A430A6005E00E
:1039D000027911440A6803689A430A60704700003C
:1039E000003C014030B50B4600210FE09FED480A36
:1039F00000EB810282ED000A9FED450A00F5B472EA
:103A000002EB810282ED000A4A1CD1B20929EDD3F2
:103A10009FED400A80ED5A0A9FED3E0A80ED5B0A59
:103A20009FED3C0A80ED5C0A9FED3B0A80ED5D0A4C
:103A30009FED390A80ED5E0A9FED370A80ED5F0A3F
:103A40009FED360A80ED600A9FED340A80ED610A31
:103A50009FED320A80ED620A00211BE0002215E092
:103A6000914206D100F5B47404EB810494ED000A90
:103A700001E09FED270A01EBC104A51800F1240421
:103A800004EB850484ED000A541CE2B2092AE7D352
:103A90004A1CD1B20929E1D39FED210A80ED630AC6
:103AA0009FED200A80ED640A9FED1F0A80ED650AF4
:103AB0009FED170A80ED660A9FED150A80ED670AF3
:103AC0009FED130A80ED680A9FED110A80ED690AE7
:103AD00080F8A831002109E09FED0D0A00F5D672AB
:103AE00002EB810282ED000A4A1CD1B20929F3D30C
:103AF000002109E09FED060A00F5E87202EB810261
:103B000082ED000A4A1CD1B21B29F3D330BD00005C
:103B1000000000006F12833ABD37863577CCAB3199
:103B20000F7B213A0AD7A33B0AD7233D30B590F843
:103B3000A81101B930BDD0ED003A90ED034A30EE46
:103B4000444A44EE033AC0ED003AD0ED013A90ED1C
:103B5000044A30EEC44A44EE033AC0ED013AD0EDD7
:103B6000023A90ED054A31EE444A44EE033AC0ED84
:103B7000023A00230CE000F1240101EB8301D1EDB6
:103B8000003A6F4901EB8301C1ED003A591CCBB2F9
:103B9000512BF0D3002126E0002220E001EBC104EC
:103BA000A51800F1240404EB8504D4ED003ACC1CE4
:103BB00004EBC4041444624D05EB840494ED004A04
:103BC000F1EE434A44EE843A01EBC104A51800F13A
:103BD000240404EB8504C4ED003A541CE2B2092A23
:103BE000DCD34C1CE1B20329D6D3002126E000220D
:103BF00020E001EBC104A51800F1240404EB8504C6
:103C0000D4ED003A01EBC105D41C2C444C4D05EB1E
:103C1000840494ED004AF1EE434A44EE843A01EB09
:103C2000C104A51800F1240404EB8504C4ED003A96
:103C3000541CE2B2032ADCD34C1CE1B20929D6D3CE
:103C4000002127E0002221E001EBC104A51800F1CA
:103C5000240404EB8504D4ED003A23EE034ACC1C83
:103C600004EBC405D41C2C44354D05EB8404D4ED81
:103C7000004A44EE243A01EBC104A51800F12404E3
:103C800004EB8504C4ED003A541CE2B2032ADBD3F2
:103C90004C1CE1B20329D5D3D0ED093A23EE034AF7
:103CA000D0ED5A4A44EE243AC0ED093AD0ED133A29
:103CB00023EE034AD0ED5B4A44EE243AC0ED133ABA
:103CC000D0ED1D3A23EE034AD0ED5C4A44EE243A8F
:103CD000C0ED1D3AD0ED273A90ED5D4A73EE843A7F
:103CE000C0ED273AD0ED313A90ED5E4A73EE843A5A
:103CF000C0ED313AD0ED3B3A90ED5F4A73EE843A35
:103D0000C0ED3B3AD0ED453A90ED604A73EE843A0F
:103D1000C0ED453AD0ED4F3A90ED614A73EE843AEA
:103D2000C0ED4F3AD0ED593A90ED624A73EE843AC5
:103D3000C0ED593ADFED033AC0ED663A00BFF9E64F
:103D40006C5501200000000010B52DED048B0446D9
:103D5000B0EE408AF0EE608A94F8A80110B9BDEC8C
:103D6000048B10BD94ED000A38EE409A94ED010AE0
:103D700078EEC09A94ED630AB0EE401A04F5CC7167
:103D8000F0EE690AB0EE490A20460FF041F900BF93
:103D9000E5E7000010B5B0EE401A90F8A81101B99F
:103DA00010BDD0ED021A31EE610AD0ED1D1A90ED72
:103DB000652A71EE820AF5EEC00AF1EE10FA00D81B
:103DC000EEE7002115E001EBC102921C00F1240393
:103DD00003EB8202D2ED001A81EEA02A01EB410230
:103DE000921C00F5E87303EB820282ED002A4A1C64
:103DF000D1B20929E7D30022114615E000EB810278
:103E0000D2ED001A01EB4102921C00F5E87303EBBE
:103E1000820292ED002A42EE001A00EB8102C2ED0E
:103E2000001A4A1CD2B211460929E7D300212DE01D
:103E300001EB41039B1C00F5E87404EB830393ED55
:103E4000002AF0EE421A00221CE001EBC1039C188C
:103E500000F1240303EB840393ED002A02F1120323
:103E600000F1240404EB8303D3ED002A01EEE22ADF
:103E700001EBC1031344334C04EB830383ED002AAD
:103E8000531CDAB2092AE0D34B1CD9B20929CFD38B
:103E900000213EE0002238E001EBC1031344294C2D
:103EA00004EB8303D3ED001A01EBC1039B1C04EB6D
:103EB000830393ED002A02EB42039B1C00F5E87498
:103EC00004EB8303D3ED002A42EE621A90ED652ADB
:103ED00001EB41039B1C04EB8303D3ED002A22EE8C
:103EE000222A02EB42039B1C04EB8303D3ED002A3E
:103EF00042EE221A01EBC1039C1800F1240303EBEC
:103F00008403C3ED001A531CDAB2092AC4D34B1C34
:103F1000D9B20929BED360EE001A90ED652AC1EE30
:103F2000822AC0ED662AD0ED761AC0ED671AD0ED70
:103F3000791AC0ED681AD0ED7C1AC0ED691A00BF7D
:103F40002EE70000B0560120002106E09FED240A74
:103F500000EB810282ED000A491C0629F6DB0021F4
:103F600008E09FED1F0A00F1180202EB810282EDCA
:103F7000000A491C2429F4DBB7EE000A80ED060A8A
:103F80009FED180A80ED0D0A9FED170A80ED140AC7
:103F9000B7EE000A80ED1B0A9FED120A80ED220A9F
:103FA0009FED110A80ED290A9FED100A80ED2A0A83
:103FB0009FED0F0A80ED2B0A9FED0E0A80ED2C0A73
:103FC0009FED0D0A80ED2D0A9FED050A80ED2E0A6A
:103FD0009FED030A80ED2F0A012280F8C020704770
:103FE00000000000CDCCCC3D0AD7233CBD37863540
:103FF00017B7513917B751380F7B213AD0ED2A3A0C
:1040000063EE803AF0EE631AD0ED2B3A63EE803A1D
:10401000B0EE632AD0ED2C3A63EE803AF0EE632ADC
:10402000D0ED003A90ED014A44EE003AC0ED003A7E
:10403000D0ED033A90ED044A44EE003AC0ED033A65
:10404000D0ED073AB0EE631AD0ED0D3AF0EE630A08
:10405000D0ED133AB0EE633AD0ED063AB0EE004A36
:1040600020EE044A44EE013A20EE004A44EE203AA3
:1040700073EEA13AC0ED063AF0EE413A40EE203A36
:10408000C0ED073AD0ED083A90ED0E4A40EE043A02
:10409000C0ED083A70EE823AC0ED0D3AD0ED0E3A1E
:1040A000C0ED0E3AD0ED143A73EEA23AC0ED143AD8
:1040B000D0ED073AC0ED0C3AD0ED083AC0ED123A17
:1040C000D0ED0E3AC0ED133AD0ED1C3AB0EE631AC3
:1040D000D0ED223AF0EE630AD0ED283AB0EE633A22
:1040E000D0ED1B3AB0EE004A20EE044A44EE013A0D
:1040F00020EE004A44EE203A73EEA13AC0ED1B3A9E
:10410000F0EE413A40EE203AC0ED1C3AD0ED1D3AB7
:1041100090ED234A40EE043AC0ED1D3A70EE823A2B
:10412000C0ED223AD0ED233AC0ED233AD0ED293A42
:1041300073EEA23AC0ED293AD0ED1C3AC0ED213A17
:10414000D0ED1D3AC0ED273AD0ED233AC0ED283A24
:104150007047000090F8C01001B970479FED040A45
:1041600080ED000A9FED020A80ED030A00BFF4E72C
:104170000000000010B52DED028B0446F0EE408AE1
:10418000B0EE608A94F8C00010B9BDEC028B10BD8F
:1041900004F1B803B0EE680A0222012120460DF0B6
:1041A000BBFB04F1BC03B0EE480A05220421204603
:1041B0000DF0B2FB00BFE8E770B504460A460026E2
:1041C000092502B909E0012A01D1160205E0022AF7
:1041D00001D1160201E04FF4407600F09FF8054649
:1041E000092D28D11548006820F440701349086053
:1041F00008460068304308600846006820F0F80070
:1042000008600846006844F0020108430B49086052
:104210000846006840F48030086000F07FF80546EA
:104220000648006820F0020004490860084600685B
:1042300020F0F8000860284670BD0000103C0240E5
:1042400009201349096801F48031B1F5803F01D19B
:1042500001201CE00E49096801F0100109B1062097
:1042600015E00B49096801F4807109B102200EE0E4
:104270000749096801F0EF0109B1072007E0044987
:10428000096801F0020109B1082000E00920704727
:104290000C3C02400348006840F0004001490860BF
:1042A00070470000103C024030B502460C4609251C
:1042B00000F034F80546092D19D10E48006820F4A5
:1042C00040700C4908600846006840F400700860BF
:1042D0000846006840F001000860146000F01EF815
:1042E00005460448006820F001000249086028469D
:1042F00030BD0000103C02400548006800F000405E
:1043000028B1044802490C39086003480860704726
:10431000103C024023016745AB89EFCD08B5092069
:104320000090FFF78DFF009002E0FFF789FF0090FB
:104330009DF800000128F8D09DF8000008BD00009D
:10434000ADF5007D06460FF2E41972B67A480068B2
:1043500004907948001F006805907748083000688D
:10436000069075480C300068079000BFEFF314808A
:104370008046CDF85080C8F340008DF8210008F049
:10438000020020B100BFEFF30980044603E000BF44
:10439000EFF30880044600BFEFF30880129000BFDF
:1043A000EFF309801390254628680C9068680D90FB
:1043B000A8680E90E8680F902869109068691190BD
:1043C000A8690990E8690B9000201A901B901C9036
:1043D0001D901E901F902090219058480768A7B10B
:1043E00007F10801002007E00B5C15AA13540A5CD2
:1043F00002B903E0421CD0B20F28F5DB00BF002356
:104400008DF863300DF1540926E070218DF85410B9
:1044100072228DF8552065228DF856202D228DF8B8
:10442000572073228DF8582063228DF85920682276
:104430008DF85A2065228DF85B2064228DF85C206F
:1044400000228DF85D200A2004E0002215A90A54FC
:10445000411CC8B21028F8DB1997002009E019F8B0
:10446000001001B907E019F8002022A90A54411CE4
:10447000C8B21F28F3DB00BF002222A90A54411C46
:10448000C8B204E0002222A90A54411CC8B2202864
:10449000F8DB2B4800900120ADF804004002ADF895
:1044A00006000020029003908DF82060022E01D1BA
:1044B000012004E0032E01D1052000E000208DF84A
:1044C000220000208DF823009FED1E0A8DED2A0AA0
:1044D0009FED1C0A8DED2B0A9FED1A0A8DED2C0A1B
:1044E0009FED180A8DED2D0A00BF05E000222EA9D0
:1044F00041F82020411CC8B21628F7DB4FF4FF71A9
:1045000068460DF0ABF98246ADF810A10E496A4637
:10451000002003E0135C0B54431C98B2B0F5007FFD
:10452000F8D301200949087000BFFEE77072652DBD
:1045300073636865640000002CED00E078090020DA
:1045400052544C4600000000EC0900202C000020D2
:1045500010B506480078012807D100F02BF810B9F3
:1045600002200249087000F003F810BD2C00002062
:1045700000BF0DF083F80DF081F80DF07FF80B48C7
:104580000DF0B1F90DF05CF80DF05AF80DF058F897
:1045900006480DF0A8F90DF071F80DF06FF80DF068
:1045A0006DF803480DF09FF9E3E70000E093040085
:1045B00040420F002DE9FF5F4848D0F8008090F896
:1045C0000890474880453FD0FFF796FE02215820CB
:1045D000FFF7F2FD0746092F05D0FFF75BFE01202C
:1045E00004B0BDE8F09FDFF8F88000200090019053
:1045F0000290039052208DF8000054208DF80100A5
:104600004C208DF8020046208DF8030001208DF823
:10461000040000208DF8050004208DF8060000201D
:104620008DF807008DF80800102168460DF016F986
:104630000646404629490860012088800420C88039
:1046400000200872CE81814609F1010000F00304C8
:10465000DFF890A02148103000EB442B00250EE03D
:104660005AF825100BEB8500FFF71EFE0746092FB1
:1046700003D0FFF70FFE0220B2E7681C85B2802D41
:10468000EED316480472002000900190029003902F
:1046900052208DF8000054208DF801004C208DF838
:1046A000020046208DF8030001208DF80400002050
:1046B0008DF8050004208DF8060000208DF8070015
:1046C0008DF80840102168460DF0C8F806460348EA
:1046D000C681FFF7DFFD002082E7000000000E0822
:1046E00052544C46EC09002070B505460C4616465F
:1046F0002088801E81B2A81C0AF053F921886854D2
:104700002088401C20802088308070BD10B5044671
:104710000FF00EFC2948007820B1012817D002289C
:1047200047D12DE04CB900F01FFE30B101202349E4
:104730000870084600780EF0DFFD022C06D102203A
:104740001E490870084600780EF0D6FD32E0012CB4
:1047500009D1002019490870084600780EF0CCFDF8
:10476000002017490870022C09D102201349087053
:10477000084600780EF0C0FD00201149087019E0CD
:10478000032C09D100200D490870084600780EF06E
:10479000B3FD00200A490870012C09D10020074907
:1047A0000870084600780EF0A7FD00200449087044
:1047B00000E000BF00BF0FF0FFFB10BD200800208D
:1047C0002108002010B50FF0B3FB034804780FF068
:1047D000F3FB204610BD0000200800202DE9F8431F
:1047E0000446884616461CB116B1B8F11F0F02D216
:1047F0000020BDE8F883AA202070BB206070242030
:10480000A0700020E0701820207100206071062048
:1048100000901D4802686946204603F038FA1A489D
:1048200042686946204603F032FA174882686946B2
:10483000204603F02CFA1448C2686946204603F06B
:1048400026FA114802696946204603F020FA0E480C
:1048500042696946204603F01AFA0027022503E060
:10486000605D4740681C85B2BDF800008542F7DBFB
:10487000BDF80010481C80B200906754BDF80000DD
:1048800030800120B5E70000F86B01202DE9F05FD2
:104890000121080303F02AFA164CDFF85C800CB9FA
:1048A0004FF00064A04502D9A8EB040600E0002602
:1048B000F01C20F00307FCF72FFF4FEA9709A246F0
:1048C000002504E05AF825000C4908606D1C4D4590
:1048D000F8D30A48D0F800B009480A490860012016
:1048E000486008468460C760C0F810B00120486185
:1048F000BDE8F09F000000089474010800300240F9
:1049000046574944F86B0120F0B50A4600210023C0
:10491000002400BF3DE0012505FA01F3156805EA12
:1049200003049C4234D105684F000326BE40B543C2
:10493000056015794E00B540066835430560157968
:10494000012D02D01579022D16D185684F0003265E
:10495000BE40B543856055794E00B5408668354305
:104960008560456801268E40B54345604568967967
:104970008E40B6B235434560C5684F000326BE4041
:10498000B543C560D5794E00B540C6683543C560AE
:10499000491C1029BFD3F0BDF0B5002300244D07FA
:1049A000ED0E02FA05F3CE1000F1200555F8265061
:1049B0004E07F70E0F26BE40B543CF1000F120067C
:1049C00046F82750CE1000F1200555F8265045EA4C
:1049D0000304CE1000F1200545F82640F0BD4183C8
:1049E0007047018370474FF6FF710160002101712C
:1049F00041718171C171704710B52DED028B00F0CE
:104A00000BF97148008800285ED0704890ED000ACC
:104A10006D48008841F28831081A6D4901EB800029
:104A200080ED000A6B4890ED000A6848D0ED000A5E
:104A300030EE200A674880ED000A674890ED000AD2
:104A40006148008841F28831081A644901EB80000E
:104A500080ED000A624890ED000A5F48D0ED000A40
:104A600030EE200A5E4880ED000A5E4890ED000AB4
:104A70005548008841F28831081A5B4901EB8000F3
:104A800080ED000A594890ED000A5648D0ED000A22
:104A900030EE200A554880ED000A4B48008841F26C
:104AA0008831081A00EE100AB8EEC00A464800889D
:104AB000081A4F4901EB800080ED000A4248008847
:104AC000401E414908807BE0484890ED000ADFED38
:104AD000490A80EE201A484880ED001A00244BE075
:104AE00040F2712060433A4A02EB401141F28832B1
:104AF0003F480DF051FA414800EB840080ED000A78
:104B00003E4800EB840090ED000A10EE101A0846B3
:104B100011F044FB9FED3A0B53EC102B11F046F9CA
:104B200012D3364800EB840090ED000A10EE101A04
:104B3000084611F033FB41EC180B9FED330B53EC9F
:104B4000102B10F0F9FF16D241F288301E49088070
:104B50009FED2F0A1F4880ED000A9FED2D0A204887
:104B600080ED000A9FED2A0A204880ED000A00200F
:104B7000BDEC028B10BD641C032CB1DB154890ED1D
:104B8000000ADFED1C0A80EE201A80ED001A14489E
:104B900090ED000ADFED170A80EE201A80ED001A72
:104BA000124890ED000ADFED130A80EE201A80ED26
:104BB000001A41F288300449088001201549086034
:104BC00014480068D4E70000CC010020E001002078
:104BD0000017002010020020E401002020650020C2
:104BE00014020020E801002040B300201802002039
:104BF0006001012000409C4524020020804F0120DC
:104C00002D431CEBE2360A3F2D431CEBE2360ABF74
:104C100000000000340200202DE9F04F2DED068B3E
:104C200087B01320FCF720FC07461220FCF71CFC81
:104C300080461520FCF718FC81461420FCF714FC74
:104C400082461720FCF710FC83461620FCF70CFC6C
:104C500006900320FCF724FC05900220FCF720FCC2
:104C600004900520FCF71CFC03900420FCF718FCC2
:104C700002900720FCF714FC01900620FCF710FCC2
:104C8000009048EA072000B200EE100AB8EEC00A11
:104C9000DFED660A80EE201A9FED650A61EE000ADC
:104CA000644890ED000AB8EE400A20EE800A62489F
:104CB00080ED000A4AEA092000B200EE100AB8EEC0
:104CC000C00ADFED5A0A80EE201A9FED590A61EE04
:104CD000000A584890ED000AB8EE400A20EE800A1B
:104CE000564880ED000A069840EA0B2000B200EE1C
:104CF000100AF8EEC00A9FED4D1A80EE810ADFED32
:104D00004C0A60EE200A4B4890ED000AB8EE400ACB
:104D100020EE800A4A4880ED000ADDE9040140EAFD
:104D2000012000B200EE100AB8EEC00A9FED3F1A53
:104D3000C0EE010A9FED3E0A20EE800A414880ED58
:104D4000000ADDE9020140EA012000B200EE100A8B
:104D5000F8EEC00A9FED351A80EE810ADFED340AC5
:104D600020EE200A384880ED000ADDE9000140EA23
:104D7000012000B200EE100AF8EEC00A9FED2B1AD7
:104D800080EE810ADFED2A0A20EE200A2F4880ED0E
:104D9000000A2220FCF768FB06462320FCF764FB90
:104DA00004462046E11704EBD161491101EBC60529
:104DB000B5F5806F1BDBA5F5006010F092FE41ECAD
:104DC0001A0B9FED230B53EC102B10F0F1FE41EC6E
:104DD000190B9FED210B53EC102B10F011FC41EC43
:104DE000180B10F021FE00B21D49088019E028467A
:104DF00010F08EFE41EC1A0B9FED150B53EC102BAF
:104E000010F0D6FE41EC190B9FED130B53EC102B59
:104E100010F0F6FB41EC180B10F006FE00B2104942
:104E2000088007B0BDEC068BBDE8F08F00FEFF46A2
:104E300000007A4428020020D4010020D80100207C
:104E4000DC010020E0010020E4010020E801002056
:104E5000000000000000C03F0000000000003740DC
:104E6000D001002010B5FBF7F3FD1049088008467B
:104E7000008809F07BFD0E4880ED000AD0ED000AA5
:104E80009FED0C0A9FED0C1A01EE200A0B4880EDF5
:104E9000000A90ED000AF2EE0E0AB4EEE00AF1EE1E
:104EA00010FA02D2012006F00DF810BD9400002087
:104EB0008C000020A69B643F211FE2409000002050
:104EC00010B50020084988610849487608490876E5
:104ED0000849487603F0AEF8002007490870022020
:104EE000FFF714FC10BD0000FC0B00202C8A0120F1
:104EF0004C8A0120708A0120500900200146F0EE02
:104F0000400A184A12781AB1002901DB032902DB92
:104F1000B0EE600A7047144A02EB411090ED050AAA
:104F2000D0ED001AB0EE401A01EEA01A90ED010A81
:104F300020EE200AD0ED031A01EEC10AD0ED061AC8
:104F400030EE210A80ED050A90ED020A20EE200ADB
:104F5000D0ED041A01EEC10A80ED060AB0EE410A56
:104F6000D8E70000040800200C55012010B52DEDF5
:104F7000028BB0EE408AB7EE000AB4EEC08AF1EEC2
:104F800010FA02DDB0EE480A01E09FED120A124865
:104F900080ED000A002011490870002415E09FED03
:104FA000100A104800EB441080ED050A9FED0C0A32
:104FB0000C4800EB441080ED060A0A4901EB44104E
:104FC0009FED090A0CF0AAFA641C032CE7DBBDEC88
:104FD000028B10BD00004843000800200408002098
:104FE000000000000C5501200000204210B52DEDFE
:104FF000028B0446B0EE408A002C01DB032C02DB5E
:10500000BDEC028B10BD044901EB4410B0EE480A20
:105010000CF084FA00BFF3E70C55012008B1012120
:1050200000E00021014A11707047000004080020D0
:105030002DE9FE4F05460E460027B8463F4800883A
:10504000092802D33E48007A00E0FF208146002470
:105050001EE04C4500D119E0C4EBC410394901EB06
:105060008000C078012808D1C4EBC411354A02EB96
:10507000810006F09BFC804407E0C4EBC411314A78
:1050800002EB810006F092FC074400BF601CC4B232
:10509000042CDED33B462C4A2848CDE900850296F5
:1050A0000188274806F0C2FA01281AD04FF0000AFA
:1050B00022480088062802D3214890F805A02348FA
:1050C0004FF48073224A51460090284606F02EF88D
:1050D000012804D11D4801881D4806F03BFDBDE8AC
:1050E000FE8F19498979C1EBC111164A02EB810083
:1050F0004FF4FE721449FBF79EFA164B4FF4007200
:105100001549114806F0C9F801280FD00F48009042
:105110000D4841784FF480730D4A10A006F006F850
:105120000A4801880A4806F015FDD8E709480188B1
:10513000094806F00FFD00BFD1E70000AC080020D1
:10514000647301201C5D01200C650120080800200B
:10515000245A01200608002024580120453A736390
:1051600068656D6120746F6F206C61726765000007
:105170002DE9F84354490C8B00209EE05349095C0B
:10518000CC297DD1514A411C515CDD2978D194460E
:10519000831C1CF80350C31C1CF80360031D1CF87F
:1051A00003308DF80030431D1CF803308DF80130BA
:1051B000831D1CF803308DF80230C31D1CF803302A
:1051C0008DF8033000F108031CF80370002202215F
:1051D00007E08BB20344DFF8F4C01CF803305A40F8
:1051E000491C0829F5DBBA4261D1DFF8E4C09CF81C
:1051F00000C00CF1010C0CF00F03DFF8D8C09CF8D4
:1052000000C0634548D0DFF8C8C09CF800C00CEB74
:105210004C0CDFF8C48008F82C50DFF8B4C09CF8C0
:1052200000C00CEB4C0C08EB8C0C8CF801609DED75
:10523000000ADFF89CC09CF800C00CEB4C0C08EB9B
:105240008C0C8CED010A4FF0000CDFF8848098F88C
:10525000008008EB4808DFF8809009EB8808A8F880
:1052600008C0DFF86C8098F8008008EB480809EB6C
:10527000880888F80AC0DFF8588098F8008000E0B5
:1052800019E008EB480809EB880888F80BC0DFF83C
:1052900040C08CF8003009E0DFF840C0DCF800C006
:1052A0000CF1010CDFF83480C8F800C000BF00F139
:1052B000090398B201E0411C88B200F10901A14242
:1052C0007FF65CAFBDE8F88388080020246E0120DB
:1052D000A4080020A5080020A46E0120A808002032
:1052E0007047000070B504460D4601200349087060
:1052F00001222946204601F041FC70BDAF08002084
:105300000320FFF71DF8000008B500BF0FF098FE5E
:1053100000900AE005F012FC0448408C401C034950
:105320004884012168460EF0B1FFF3E7B8890120F7
:1053300008B500BF0FF084FE00900DE09FED070A56
:10534000074800F01DF80748808C401C05498884F8
:10535000012168460EF09AFFF0E700006F12833AD1
:1053600098020020B88901200348007908B900207C
:10537000704702480078FBE76C16002028030020E5
:1053800010B52DED108B88B00446F0EE408A002059
:10539000059006900790B6EE000A28EE800A8DED83
:1053A000030AFE4890ED000AB0EE40BAFC4890EDCA
:1053B000000AF0EE40BAFB4890ED000AB0EE40CA99
:1053C000F94890ED000AF0EE40CAF84890ED000A66
:1053D00030EE280A80ED000A90ED000AF2EE040A91
:1053E000B4EEE00AF1EE10FA0AD2D0ED000AB2EE05
:1053F000041A80EE810AF7EE000A30EEC0EA01E0FE
:105400009FEDEBEAEB4890ED000AF1EE000A70EE3A
:10541000C00A90ED000AB0EE40DA00EE8EDAE648FF
:1054200090ED000ADFEDE50A70EEC00A90ED000A8B
:10543000F0EE40DA40EE8EDAE14890ED000AB5EE8B
:10544000C00AF1EE10FA0FD1DE4890ED000AB5EE79
:10545000C00AF1EE10FA07D1DB4890ED000AB5EE74
:10546000C00AF1EE10FA7DD0D54890ED000A8DED1E
:10547000050AD44890ED000A8DED060AD24890ED59
:10548000000A8DED070ADDED050A60EEA00A9DED2C
:10549000061ADDED061A41EE210A9DED071ADDED33
:1054A000071A41EE210AB0EE600A0CF057FDB0EE8B
:1054B000408ADDED050AB0EE480A20EE800A8DED47
:1054C000050ADDED060AB0EE480A20EE800A8DEDF1
:1054D000060ADDED070AB0EE480A20EE800A8DEDDF
:1054E000070A9DED060AB948D0ED000A20EE200A11
:1054F000DDED070AB64890ED001AF0EE40AA40EE46
:10550000C1AA9DED070AB348D0ED000A20EE200A9B
:10551000DDED050AAD4890ED001AB0EE409A00EEC0
:10552000C19A9DED050AAA48D0ED000A20EE200A96
:10553000DDED060AA74890ED001AF0EE409A40EE25
:10554000C19A6DEEAA0AA44890ED000A00EEA80ADE
:1055500080ED000A6DEE890AA04890ED000A00EE89
:10556000A80A00E063E080ED000A6DEEA90A9C48FD
:1055700090ED000A00EEA80A80ED000A964890ED32
:10558000000A0DEE2A0A9748D0ED000A30EE200AF4
:1055900080ED000A914890ED000A0DEE090A92484C
:1055A000D0ED000A30EE200A80ED000A8C4890ED24
:1055B000000A0DEE290A8D48D0ED000A30EE200ACF
:1055C00080ED000A6AEEAA0A49EE090A49EEA90A24
:1055D000B0EE600A8648D0ED000A30EE601AD0EDD9
:1055E000000ADFED841A41EE810AC0ED000AD0ED19
:1055F000000A8148C0ED000A80480078B0B96B48C5
:10560000D0ED000AB2EE041AF4EEC10AF1EE10FA7F
:105610000CDD7748D0ED000A9FED791AF4EEC10A4F
:10562000F1EE10FA02D201207449087000BF7548EB
:10563000007970B17148007848B95C4890ED000A73
:10564000F3EE0E0AB4EEE00AF1EE10FA01DD0120ED
:1056500000E000206C4908706248D0ED000A9DED22
:10566000030A20EE800A8DED000A5F48D0ED000AA3
:105670009DED030A20EE800A8DED010A5B48D0ED16
:10568000000A9DED030A20EE800A8DED020A9DEDD1
:10569000000A20EE000ADDED010A9DED011A00EE80
:1056A000810ADDED020A9DED021AB0EE40AA00EE7D
:1056B00081AAB7EE000A30EE4A0A20EE0B0ADDEDB1
:1056C000000A0BEEE00ADDED010A0CEE600ADDEDEA
:1056D000020A0CEEE00A314880ED000AB7EE000A3B
:1056E00030EE4A0A20EE2B0ADDED000A0BEE200A0E
:1056F000DDED020A0CEE200ADDED010A0CEEE00AF7
:10570000274880ED000AB7EE000A30EE4A0A20EE84
:105710000C0ADDED010A0BEE200ADDED020A0BEEAC
:10572000E00ADDED000A0CEEA00A1E4880ED000A3A
:10573000B7EE000A30EE4A0A20EE2C0ADDED020A2E
:105740000BEE200ADDED010A0BEEA00ADDED000AEA
:105750000CEE600A144880ED000A1048D0ED000AF3
:1057600060EEA00A0E4890ED001AD0ED001A41EE4E
:10577000210A0C4890ED001AD0ED001A41EE210AE2
:10578000094890ED001AD0ED001A41EE210AB0EE62
:10579000600A0CF0E3FBB0EE408A37E02C030020F7
:1057A00030030020340300203803002018030020B9
:1057B0000000000004030020080300200AD7A33CD7
:1057C000EC010020F0010020F4010020640300201F
:1057D000600300205C0300200C0300201003002065
:1057E00014030020F8010020FC010020000200202A
:1057F0001C0300206F12033B240300202003002021
:10580000FAED6B3A6C16002028030020874890EDD3
:10581000000A20EE080A80ED000A854890ED000A93
:1058200020EE080A80ED000A824890ED000A20EE82
:10583000080A80ED000A804890ED000A20EE080A70
:1058400080ED000A794890ED000A60EE00EA7848A1
:1058500090ED000A20EE00FA764890ED000A60EE26
:1058600000FA754890ED000A20EE000A8DED040A5A
:105870003EEE8F0A70EE6F0A9DED040A30EEC00A0C
:105880006E4880ED000A6A4890ED000A6948D0ED44
:10589000000A20EE200A6548D0ED000A664890ED27
:1058A000001A00EE810AF0EE000A20EE200A644899
:1058B00080ED000A5E4890ED000A5F48D0ED000AD6
:1058C00020EE200A5948D0ED000A5A4890ED001AFF
:1058D00000EEC10AF0EE000A20EE200A594880EDE1
:1058E000000A524890ED000A5148D0ED000A20EE1F
:1058F000200A5048D0ED000A4F4890ED001A00EE03
:10590000810AF0EE000A20EE200A4F4880ED000ADE
:105910003EEECF0A70EE6F0A9DED040A30EE800A6B
:105920004A4880ED000A474890ED000AF7EE000A69
:10593000B4EEE00AF1EE10FA03DDB7EE000A80EDF6
:10594000000A404890ED000AFFEE000AB4EEE00ABB
:10595000F1EE10FA03D2BFEE000A80ED000A3948DA
:1059600090ED000A09F05EF8B1EE400ADFED380A6A
:1059700020EE200A84ED190A3448D0ED000A32489E
:1059800090ED000A09F0E4F8DFED310A20EE200A7C
:1059900084ED180A2948D0ED000A294890ED000A44
:1059A00009F0D6F8DFED2A0A20EE200A84ED1A0A63
:1059B000284890ED000A2348D0ED000A9FED261AF2
:1059C00001EE600A254880ED000A254890ED000AA6
:1059D0001D48D0ED000A9FED201A01EE600A214813
:1059E00080ED000A204890ED000A1848D0ED000A2A
:1059F0009FED191A01EE600A1C4880ED000A11485B
:105A000090ED000A1A4880ED000A0F4890ED000A58
:105A1000184880ED000A0D4890ED000A164880ED08
:105A2000000A08B0BDEC108B10BD00002C03002054
:105A300030030020340300203803002054030020EA
:105A4000580300205C030020600300206403002052
:105A5000ED2E6542EC01002000007A443C0300205A
:105A6000F001002040030020F40100204403002046
:105A7000480300204C030020500300201CB50121E6
:105A8000042002F033F900208DF8040002208DF884
:105A9000070001208DF805000320009069460248A8
:105AA000FEF732FF1CBD0000000802401CB50121BA
:105AB000084602F01BF90121042002F017F94FF407
:105AC000C050009001208DF8040000208DF80600E1
:105AD00003208DF8050001208DF807006946134862
